:020000040000FA
:100000000C9463000C948B000C948B000C94C7032D
:100010000C94C7030C94C7030C948B000C948B00B6
:100020000C948B000C948B000C948B000C948B0024
:100030000C948B000C948B000C948B000C948B0014
:100040000C9425030C948B000C9495030C946F0373
:100050000C948B000C948B000C948B000C948B00F4
:100060000C948B000C948B0000000008000201002F
:100070000003040700000000000000000000000072
:1000800023002600290000000000240027002A0089
:1000900000000000250028002B00040404040404D0
:1000A0000404020202020202030303030303010227
:1000B00004081020408001020408102001020408F6
:1000C00010208B04C80711241FBECFEFD8E0DEBF7D
:1000D000CDBF26E0A2EDB5E001C01D92AF3DB20755
:1000E000E1F715E0A0E0B1E0EAE6F4E102C0059036
:1000F0000D92A23DB107D9F710E0C2E6D0E004C0EE
:100100002197FE010E942708C136D107C9F70E9436
:1001100072050C94280A0C940000AF92BF92CF9203
:10012000DF92EF92FF920F931F93CF93DF936C01B7
:100130007B018B01040F151FEB015E01AE18BF0898
:10014000C017D10759F06991D601ED91FC9101904A
:10015000F081E02DC6010995892B79F7C501DF9162
:10016000CF911F910F91FF90EF90DF90CF90BF90B4
:10017000AF900895FC01538D448D252F30E0842FDE
:1001800090E0821B930B541710F0CF9608950197BF
:100190000895FC01918D828D981761F0A28DAE0FAC
:1001A000BF2FB11D5D968C91928D9F5F9F73928F33
:1001B00090E008958FEF9FEF08952FB7F894809106
:1001C0001B0690911C06A0911D06B0911E062FBF24
:1001D0008093270690932806A0932906B0932A06B9
:1001E0008FE196E00E94C90097FF26C02FB7F894D0
:1001F00080911B0690911C06A0911D06B0911E06D1
:100200002FBF4091270650912806609129067091D2
:100210002A06841B950BA60BB70B40912306509121
:100220002406609125067091260684179507A60777
:10023000B707B0F28FEF9FEF0895FC01918D828D8B
:10024000981731F0828DE80FF11D858D90E00895AB
:100250008FEF9FEF0895FC01918D228D892F90E003
:10026000805C9F4F821B91098F73992708958FE1BE
:1002700096E00E942B0121E0892B09F420E0822FD7
:10028000089580E090E0892B29F00E9437018111C8
:100290000C9400000895FC01A48DA80FB92FB11D86
:1002A000A35ABF4F2C91848D90E001968F739927AC
:1002B000848FA689B7892C93A089B1898C9183708A
:1002C00080648C93938D848D981306C00288F38983
:1002D000E02D80818F7D80830895EF92FF920F93B0
:1002E0001F93CF93DF93EC0181E0888F9B8D8C8DE2
:1002F00098131AC0E889F989808185FF15C09FB7D6
:10030000F894EE89FF896083E889F9898081837098
:10031000806480839FBF81E090E0DF91CF911F9147
:100320000F91FF90EF900895F62E0B8D10E00F5F68
:100330001F4F0F731127E02E8C8D8E110CC00FB63E
:1003400007FCFACFE889F989808185FFF5CFCE01D6
:100350000E944B01F1CFEB8DEC0FFD2FF11DE35A05
:10036000FF4FF0829FB7F8940B8FEA89FB89808159
:100370008062CFCFCF93DF93EC01888D8823B9F0D3
:10038000AA89BB89E889F9898C9185FD03C08081A0
:1003900086FD0DC00FB607FCF7CF8C9185FFF2CF1D
:1003A000808185FFEDCFCE010E944B01E9CFDF9127
:1003B000CF9108952091140630911506281739071A
:1003C00071F49091120680911306981741F0E09114
:1003D0001206F0E0EE52FA4F808190E008958FEF20
:1003E0009FEF08950895EF92FF920F931F93CF937D
:1003F000DF93DC015C96ED90FC905D97E114F104D5
:1004000079F481E090E013969C938E93129790E09C
:1004100080E0DF91CF911F910F91FF90EF900895B1
:100420005196ED91FC91529750968C915097982F40
:1004300090950FB75E962C915E97122F127021FD4A
:100440006095F8942081112319F1282B2083E7016E
:100450002197F1F728E0462F50E0308160FF1AC065
:10046000382B3083E7012197F1F7BA01759567952D
:10047000215089F7112381F08081892380830FBF68
:100480005C968D919C910197F1F781E090E0C1CF4E
:100490002923DCCF3923E5CF9081892BEFCF209121
:1004A0001406309115062817390761F48091130658
:1004B0002091120690E0805C9F4F821B91098F7300
:1004C0009927089590E080E00895209114063091D6
:1004D000150628173907B9F4909112068091130672
:1004E000981789F0E0911206F0E0EE52FA4F808101
:1004F0002091120630E02F5F3F4F2F733327209358
:10050000120690E008958FEF9FEF089590E080E04D
:100510000895FC0101900020E9F73197AF01481BD5
:10052000590BBC018FE196E00C948D00CF93DF93C3
:10053000FC0144815581608171818FE196E00E94C8
:100540008D00EC0189ED94E00E9489028C0F9D1FC3
:10055000DF91CF910895CF93DF930E948902EC0140
:1005600089ED94E00E9489028C0F9D1FDF91CF914D
:100570000895FC0180819181009711F00C94C908C5
:1005800008950F931F93CF93DF93EC018881998196
:10059000009759F02A813B812617370730F081E018
:1005A000DF91CF911F910F9108958B016F5F7F4F66
:1005B0000E945209009759F0998388831B830A830C
:1005C0002C813D81232B59F7FC011082E8CF80E07C
:1005D000E7CFEF92FF920F931F93CF93DF93EC013E
:1005E0007B01198218821B821A821D821C82FB01E8
:1005F00001900020E9F731978F01061B170BB80116
:100600000E94C10228813981811113C02115310551
:1006100019F0C9010E94C908198218821D821C8222
:100620001B821A82DF91CF911F910F91FF90EF9063
:1006300008951D830C83B701C901DF91CF911F91EC
:100640000F91FF90EF900C94210A1F920F920FB61A
:100650000F9211242F933F938F939F93AF93BF9348
:1006600080911B0690911C06A0911D06B0911E065C
:1006700030911A0623E0230F2D3758F50196A11D5E
:10068000B11D20931A0680931B0690931C06A0931D
:100690001D06B0931E068091160690911706A09134
:1006A0001806B09119060196A11DB11D809316067A
:1006B00090931706A0931806B0931906BF91AF91B7
:1006C0009F918F913F912F910F900FBE0F901F9090
:1006D000189526E8230F0296A11DB11DD2CF1F92B7
:1006E0000F920FB60F9211242F933F934F935F9366
:1006F0006F937F938F939F93AF93BF93EF93FF93EA
:100700008FE196E00E944B01FF91EF91BF91AF9175
:100710009F918F917F916F915F914F913F912F9119
:100720000F900FBE0F901F9018951F920F920FB64B
:100730000F9211242F938F939F93EF93FF93E09148
:100740002F06F09130068081E0913506F091360653
:1007500082FD1BC09081809138068F5F8F7320913E
:100760003906821741F0E0913806F0E0E15EF94F7A
:10077000958F80933806FF91EF919F918F912F91E4
:100780000F900FBE0F901F9018958081F4CF1F928D
:100790000F920FB60F9211242F933F934F935F93B5
:1007A0006F937F938F939F93AF93BF93EF93FF9339
:1007B000E0911406F0911506309749F0A685B785AB
:1007C0008585968D91FF14C09C918923A1F4FF919A
:1007D000EF91BF91AF919F918F917F916F915F91B9
:1007E0004F913F912F910F900FBE0F901F90189532
:1007F0009C91892361F7A389B4899C91858980950F
:1008000089238C93868997890197F1F7608D718D83
:10081000A685B785558538E020E0CB010197F1F733
:10082000822F90E095958795282F4C91452309F0CC
:100830002068315091F7868D81FD209580911306B7
:1008400090E001968F73992730911206381799F02E
:10085000A0911306B0E0AE52BA4F2C9380931306CA
:10086000828D938D0197F1F7A389B4898C91958935
:10087000892B8C93ACCF868D8160868FF1CF90E0F1
:10088000FC01E859FF4F2491FC01E255FF4F3491E0
:10089000FC01E656FF4FE491EE23C9F0222339F024
:1008A000233001F1A8F4213019F1223029F1F0E0D0
:1008B000EE0FFF1FE057FF4FA591B4918FB7F8944B
:1008C000EC91611126C030953E233C938FBF089573
:1008D0002730A9F02830C9F0243049F780918000F2
:1008E0008F7D03C0809180008F7780938000DFCF61
:1008F00084B58F7784BDDBCF84B58F7DFBCF8091AE
:10090000B0008F778093B000D2CF8091B0008F7D00
:10091000F9CF3E2BDACF0F931F93CF93DF93109233
:1009200022061092210688EE93E0A0E0B0E08093CA
:10093000230690932406A0932506B093260629EB60
:1009400034E03093200620931F0625EC30E03093EE
:100950002C0620932B0624EC30E030932E062093B7
:100960002D0620EC30E03093300620932F0621EC4A
:1009700030E0309332062093310622EC30E03093A1
:1009800034062093330626EC30E03093360620936D
:100990003506109238061092390610923A061092D7
:1009A0003B061092BF061092BE068093C00690933D
:1009B000C106A093C206B093C3068BEC94E090935B
:1009C000BD068093BC061092D3061092D2061092F8
:1009D000D5061092D4061092D7061092D606109221
:1009E000D9061092D8066091DA066E7F6D7F60930B
:1009F000DA066695617081E068270E943F044FEA3D
:100A000050E0FA0164918BE990E0FC0124912223EB
:100A100099F030E0220F331FF901EA57FF4FA591FB
:100A2000B491F901E057FF4F259134912FB7F89415
:100A30003C91632B6C932FBFFA0144914093CC06F9
:100A4000FC018491E82FF0E0EE0FFF1FE057FF4F0D
:100A5000859194919093CE068093CD060EEA10E096
:100A6000F8012491CAE9D0E0FE0184918823C9F0FD
:100A700090E0880F991FFC01EA57FF4FA591B491B0
:100A8000FC01E057FF4F459154913FB7F8949C917A
:100A9000822F809598239C93FA01908189238083EB
:100AA0003FBF8091DA0681FD04C061E080E00E94D2
:100AB0003F041092C806F80104910093C906FE0194
:100AC000C491EC2FF0E0EE0FFF1FE458FF4F85912B
:100AD00094919093CB068093CA06DF91CF911F919A
:100AE0000F910895CF93DF93CDB7DEB762970FB61E
:100AF000F894DEBF0FBECDBF789484B5826084BD0C
:100B000084B5816084BD85B5826085BD85B5816011
:100B100085BD80916E00816080936E00109281008F
:100B2000809181008260809381008091810081604A
:100B3000809381008091800081608093800080910B
:100B4000B10084608093B1008091B0008160809397
:100B5000B00080917A00846080937A0080917A005E
:100B6000826080937A0080917A00816080937A001D
:100B700080917A00806880937A001092C100E091A1
:100B80002F06F091300682E08083E0912B06F091F1
:100B90002C061082E0912D06F0912E068FEC8083BA
:100BA00010923706E0913306F091340686E0808398
:100BB000E0913106F0913206808180618083E0917E
:100BC0003106F0913206808188608083E0913106A1
:100BD000F0913206808180688083E0913106F09147
:100BE000320680818F7D80831092D7061092D606C0
:100BF0001092D5061092D4061092D3061092D20607
:100C00008DE991E09093D9068093D8069091C8061B
:100C1000963108F047C02DEB30E03093D306209397
:100C2000D2062BE931E03093D5062093D4062CE28E
:100C300031E03093D7062093D6062091680084E0F7
:100C4000983048F031E09E3008F430E081E001C097
:100C5000880F3A95EAF7822B809368002DE630E002
:100C6000983050F02BE630E09E3030F02CE630E04B
:100C7000963110F030E020E03093D0062093CF067C
:100C8000292F30E0983008F081C081E001C0880F42
:100C90009A95EAF78093D1068091D8069091D9066B
:100CA0000197F1F78091D6069091D706892B49F1EB
:100CB000E0911406F091150686E0EC3BF80709F187
:100CC000309739F0A389B4899C91858980958923CF
:100CD0008C938091DA068E7F8093DA061092130649
:100CE000109212068CEB96E09093150680931406F2
:100CF000E091CF06F091D00680819091D106892BAA
:100D000080838CED94E00E94AB0289EF94E00E9416
:100D1000AB0280E0A82E80E0B82E8FE196E00E9422
:100D20002B01892B09F407C18EE195E00E94AB02EB
:100D30008FE196E00E942B01892BD1F36BED74E0DB
:100D4000CE010D960E94E9020E94DD0097FD2BC0A6
:100D50008A30910541F189831A8209891A890F5FC6
:100D60001F4FB801CE010D960E94C102882361F386
:100D70002D853E8589899A89BE016F5F7F4F820FDD
:100D8000931F0E94210A1A8B098BDECF9E3040F4FC
:100D90002850310981E001C0880F2A95EAF77ACFFF
:100DA0002E503109F7CFCD84DE84C114D10431F047
:100DB00009891A8976010115110561F587E395E026
:100DC0000E948902CE010D960E94960210E000E07A
:100DD000B80160507F4FCE0101960E94E902298937
:100DE0003A898D819E812817390709F05AC08D856F
:100DF0009E8569817A81009709F442C06115710569
:100E000009F0A5C0232B09F4A5C0FC01808190E066
:100E100044C074014701EFEF8E1A9E0AF7018081EA
:100E2000082E000C990B0E94E407892B91F70150C2
:100E300011090C0D1D1DF8018081082E000C990B65
:100E40000E94E407892B31F00E151F0518F00150A0
:100E50001109F1CFA8014F5F5F4F4E195F095A8BFF
:100E6000498BCE14DF0420F4B701C6010E940F0A9B
:100E7000ED85FE8589899A89E80FF91F10829ECF3A
:100E80006115710509F466C0232B09F463C0FB01E9
:100E9000808190E0919581959109FF24F394892BAD
:100EA00009F0F12CCE0101960E94B902FF2009F44D
:100EB00061C0B801655F7E4FCE0101960E94E902D4
:100EC0006DE475E0CE0107960E94E902E980FA80A0
:100ED000E114F10409F441C00D811E8101151105D1
:100EE000B1F08B859C85080F191FB801CE010796BC
:100EF0000E94C102882389F12F8138858B859C85CA
:100F0000B701820F931F0E94210A1C870B87CE0115
:100F100007960E949602CE0107960E94B902CE0162
:100F200001960E94B9028EE595E00E94AB02CE01C7
:100F30000D960E94B902A114B10409F4EECE0E94EC
:100F40003701882309F4E9CE0E940000E6CE0E9412
:100F5000180AA3CFFF24F394A5CF8F81988500971B
:100F600011F00E94C90818861F821C861B861A86EB
:100F70001986CDCF075D1F4F0F3AF3E01F0709F029
:100F800027CF89E795E00E94AB0284EA95E0CDCFB8
:100F90008BEC94E09093BD068093BC068091140680
:100FA000909115068C5B964071F4E091CF06F0911C
:100FB000D00690818091D1068095892380831092FC
:100FC000150610921406089591110C94ED078032C5
:100FD00019F089508550C8F70895992788270895F2
:100FE0002F923F924F925F926F927F928F929F9239
:100FF000AF92BF92CF92DF92EF92FF920F931F9327
:10100000CF93DF93CDB7DEB7CA1BDB0B0FB6F894D7
:10101000DEBF0FBECDBF09942A88398848885F8417
:101020006E847D848C849B84AA84B984C884DF8088
:10103000EE80FD800C811B81AA81B981CE0FD11D6C
:101040000FB6F894DEBF0FBECDBFED010895EE0FD1
:10105000FF1F0590F491E02D09940F931F93CF93F8
:10106000DF938230910510F482E090E0E091DD069C
:10107000F091DE0630E020E0B0E0A0E0309799F497
:101080002115310509F44AC0281B390B24303105DC
:10109000D8F58A819B816115710589F1FB019383E4
:1010A0008283FE0111C04081518102811381481762
:1010B0005907E0F04817590799F4109761F0129614
:1010C0000C93129713961C933296CF01DF91CF9118
:1010D0001F910F9108950093DD061093DE06F4CF63
:1010E0002115310551F04217530738F0A901DB01F2
:1010F0009A01BD01DF01F801C1CFEF01F9CF909353
:10110000DE068093DD06CDCFFE01E20FF31F819353
:1011100091932250310939832883D7CF2091DB0660
:101120003091DC06232B41F42091B1043091B204BC
:101130003093DC062093DB062091AF043091B0049D
:101140002115310541F42DB73EB74091B3045091BC
:10115000B404241B350BE091DB06F091DC06E217AA
:10116000F307A0F42E1B3F0B2817390778F0AC01CA
:101170004E5F5F4F2417350748F04E0F5F1F5093A7
:10118000DC064093DB06819391939FCFF0E0E0E093
:101190009CCFCF93DF930097E9F0FC013297138245
:1011A0001282A091DD06B091DE06ED0130E020E074
:1011B0001097A1F420813181820F931F2091DB06CB
:1011C0003091DC062817390709F061C0F093DC067E
:1011D000E093DB06DF91CF910895EA01CE17DF0798
:1011E000E8F54A815B819E0141155105B1F7E9019E
:1011F000FB83EA8349915991C40FD51FEC17FD0772
:1012000061F4808191810296840F951FE901998391
:101210008883828193819B838A83F0E0E0E0129649
:101220008D919C9113970097B9F52D913C91119751
:10123000CD010296820F931F2091DB063091DC06D0
:101240002817390739F6309751F51092DE061092BB
:10125000DD06B093DC06A093DB06BCCFD383C2834C
:1012600040815181840F951FC817D90761F44E5FE3
:101270005F4F88819981480F591F518340838A812C
:101280009B81938382832115310509F0B0CFF093C0
:10129000DE06E093DD069ECFFD01DC01C0CF1382A8
:1012A0001282D7CFB0E0A0E0E8E5F9E00C94F207B5
:1012B0008C01009751F4CB010E942D088C01C801CC
:1012C000CDB7DEB7E0E10C940E08FC01E60FF71F86
:1012D0009C0122503109E217F30708F49DC0D9019F
:1012E000CD91DC911197C617D70798F0C530D1057D
:1012F00030F3CE0104978617970708F3C61BD70B68
:101300002297C193D1936D937C93CF010E94C9081A
:10131000D6CF5B01AC1ABD0A4C018C0E9D1EA0916C
:10132000DD06B091DE06512C412CF12CE12C1097FA
:1013300031F58091DB069091DC068815990509F05E
:101340005CC04616570608F058C08091AF049091D3
:10135000B004009741F48DB79EB74091B30450910B
:10136000B404841B950BE817F90708F055C0F093F7
:10137000DC06E093DB06F90171836083A0CF8D91D9
:101380009C91119712966C90129713967C901397DC
:10139000A815B90559F56C0142E0C40ED11CCA1458
:1013A000DB0420F1AC014A195B09DA0112961597AA
:1013B00080F06282738251834083D9016D937C9364
:1013C000E114F10471F0D7011396FC93EE93129798
:1013D00076CF22968C0F9D1FF90191838083F301B4
:1013E000EFCFF093DE06E093DD0669CF481659068D
:1013F00008F42C017D01D3019ACFCB010E942D0866
:101400007C01009749F0AE01B8010E940F0AC801A3
:101410000E94C908870153CF10E000E050CFFB01C4
:10142000DC0102C001900D9241505040D8F7089560
:10143000FB01DC018D91019080190110D9F3990B0A
:101440000895FB01DC0101900D920020E1F7089561
:1014500010E0C2E6D0E004C0FE010E9427082196F9
:10146000C336D107C9F7F894FFCF34323131343263
:1014700030303735004241524E415320415454419F
:101480004C4C410000000000000000000000000083
:1014900000000034323131343231303031004949CA
:1014A0004E204B55524E49414E494E4753494800F4
:1014B0000000000000000000000000003432313164
:1014C0003432313030320044454C5649524120418B
:1014D0004D424152574154490000000000000000B5
:1014E0000000000000343231313432313030340009
:1014F0004449414E494341204D41554C494E4100DC
:101500000000000000000000000000000000343275
:1015100031313432313030360053686F6661204BE0
:10152000686F6572756E6E6973610000000000007F
:1015300000000000000000343231313432313030EC
:10154000380053484F46494E41204D554D54415A5D
:10155000204D414841524448494B410000000000A1
:1015600034323131343231303039004143484D4129
:10157000442048555341494E00000000000000003F
:1015800000000000000000000034323131343231FC
:101590003031310041524C41205A414852414E496C
:1015A00020464154494B48414800000000000000DB
:1015B000000034323131343231303134004E6F7604
:1015C0006920466974726961000000000000000033
:1015D000000000000000000000000034323131340F
:1015E0003231303137005052414449505441204B40
:1015F0005553554D412059554448410000000000C5
:10160000000000003432313134323130313800439F
:10161000616879612041646520426173756B69007E
:101620000000000000000000000000000034323123
:10163000313432313031390042454C4C41204E4139
:101640005441535941204D554C59414E494E4752F2
:10165000554D0000000034323131343231303232F5
:1016600000414C49204D554E544F48410000000068
:101670000000000000000000000000000000003436
:101680003231313432313032360044455343414EE9
:101690004941205055545249205348415241204E0F
:1016A00049544100000000003432313134323130CD
:1016B000323700414E4747454C4120464552412074
:1016C0005452492041535455544900000000000031
:1016D000003432313134323130333100494C4841F9
:1016E0004D2052414D414448414E205052415345B6
:1016F00054594F00000000000000343231313432C0
:1017000031303332004169736168204E757269610E
:1017100020416D616E616800000000000000000063
:1017200000000034323131343231303333004A4535
:1017300052454D592052454948414E44524F0000B0
:1017400000000000000000000000000034323131D1
:1017500034323130333500524953574152492053C6
:101760004554594F204E5547524148454E49000077
:101770000000000000343231313432313033360071
:1017800047414C494820524944484F2055544F4DF9
:101790004F00000000000000000000000000343294
:1017A00031313432313033380041554C49412049D0
:1017B0004B4853414E49204641555A494148000043
:1017C0000000000000000034323131343231303456
:1017D000310056494E415941204D4946544120411E
:1017E0004C49464148000000000000000000000095
:1017F00034323131343231303432004C414D54497D
:10180000415220505554524920414E495341205392
:1018100049544F48414E4700000000DF0680000059
:101820000000006D018D00BA00BA012B01C9001D36
:101830000100000000F3018D008602F2014F0265F5
:1018400002DA010D0A0053697374656D20416273F9
:10185000656E7369204265726261736973205246D6
:1018600049440053696C616B616E2074656D7065ED
:101870006C6B616E206B6172747520524649442016
:10188000416E64612E2E2E004D656D626163612094
:101890004E494D206461726920524649442E2E2ED5
:1018A000004E494D2079616E672064696D617375E2
:1018B0006B6B616E3A200053656C616D61742064DE
:1018C0006174616E672C2000416E646120626572F4
:1018D000686173696C206D6173756B206B656C61F9
:1018E000732E004E494D20746964616B2064696BEE
:1018F000656E616C2E20416B736573206B65206B88
:10190000656C6173206469746F6C616B2E00536940
:101910006C616B616E2074656D70656C6B616E20BF
:101920006B61727475205246494420416E64612097
:0C1930006B656D62616C692E2E2E00004C
:107E0000112484B714BE81FFF0D085E080938100F7
:107E100082E08093C00088E18093C10086E0809377
:107E2000C20080E18093C4008EE0C9D0259A86E02C
:107E300020E33CEF91E0309385002093840096BBD3
:107E4000B09BFECF1D9AA8958150A9F7CC24DD24C4
:107E500088248394B5E0AB2EA1E19A2EF3E0BF2EE7
:107E6000A2D0813461F49FD0082FAFD0023811F036
:107E7000013811F484E001C083E08DD089C08234E0
:107E800011F484E103C0853419F485E0A6D080C0E4
:107E9000853579F488D0E82EFF2485D0082F10E0AE
:107EA000102F00270E291F29000F111F8ED06801E7
:107EB0006FC0863521F484E090D080E0DECF843638
:107EC00009F040C070D06FD0082F6DD080E0C81688
:107ED00080E7D80618F4F601B7BEE895C0E0D1E017
:107EE00062D089930C17E1F7F0E0CF16F0E7DF06D8
:107EF00018F0F601B7BEE89568D007B600FCFDCFD4
:107F0000A601A0E0B1E02C9130E011968C91119780
:107F100090E0982F8827822B932B1296FA010C0160
:107F200087BEE89511244E5F5F4FF1E0A038BF0790
:107F300051F7F601A7BEE89507B600FCFDCF97BE46
:107F4000E89526C08437B1F42ED02DD0F82E2BD052
:107F50003CD0F601EF2C8F010F5F1F4F84911BD097
:107F6000EA94F801C1F70894C11CD11CFA94CF0C13
:107F7000D11C0EC0853739F428D08EE10CD085E9AC
:107F80000AD08FE07ACF813511F488E018D01DD067
:107F900080E101D065CF982F8091C00085FFFCCF94
:107FA0009093C60008958091C00087FFFCCF809118
:107FB000C00084FD01C0A8958091C6000895E0E648
:107FC000F0E098E1908380830895EDDF803219F02E
:107FD00088E0F5DFFFCF84E1DECF1F93182FE3DFCA
:107FE0001150E9F7F2DF1F91089580E0E8DFEE27F6
:047FF000FF270994CA
:027FFE00040479
:00000001FF
